:0400000031EF0BF0E1
:1000080000C01EF001C01DF002C01CF003C01BF0B0
:1000180004C01AF005C019F008C018F009C017F09C
:100028000AC016F00BC015F0E1CF27F0E2CF28F098
:10003800E9CF25F0EACF26F0F3CF23F0F4CF24F070
:10004800F5CF22F0F8CF1FF0F7CF20F0F6CF21F050
:10005800F2A205D0F292010E296E000E2A6EF0A0CF
:1000680005D0F090020E296E000E2A6EA1AA03D0C8
:1000780020EC0AF0A19A22C0F5FF1FC0F8FF20C0AB
:10008800F7FF21C0F6FF23C0F3FF24C0F4FF1EC012
:1000980000F01DC001F01CC002F01BC003F01AC024
:1000A80004F019C005F018C008F017C009F016C010
:1000B8000AF015C00BF025C0E9FF26C0EAFF27C0EB
:0800C800E1FF28C0E2FF110076
:1000D0001E0E716E100E406E040E416E40C0E1FFA8
:1000E00041C0E2FFE69E40C0E1FF41C0E2FFE69C66
:1000F000040E4024E16E000E4120E26EE68C180EE4
:100100004E6E040E4F6E4EC0E1FF4FC0E2FFE69E02
:100110004EC0E1FF4FC0E2FFE69C040E4E24E16EAC
:10012000000E4F20E26EE68C020E4024E16E000EBF
:100130004120E26E2EC0E6FF2FC0E6FF010E4024F4
:10014000E16E000E4120E26E400EE66E40C0E9FF17
:1001500041C0EAFFEECF00F040C0E1FF41C0E2FF46
:10016000400E0014E66E40C0E9FF41C0EAFFEECF4A
:1001700000F0880E001240C0E1FF41C0E2FF00C065
:10018000E6FF40C02CF041C02DF0040E4018006E78
:0601900000C040F0120067
:100196000B6A0A6A096A00500402F4CF09F0F3CF29
:1001A60008F001500502F4CF0BF0F3CF0AF000502F
:1001B6000502F3500926F4500A22E86A0B22015080
:1001C6000402F3500926F4500A22E86A0B2208C0FA
:1001D60000F009C001F00AC002F00BC003F01200E3
:1001E60004012251010A0FE120C401F01F0E01167D
:1001F6000150000A08E13B8E2151030A03E1010E7A
:10020600376E01D0376A2251000AD8A48BD020C499
:1002160001F01F0E01160150020AD8A483D024C48F
:1002260001F00F0E01160150000AD8B47BD03B8EA8
:1002360024BF16D024C403F00F0E031603C000F02B
:10024600000E016E0036009001363E0E0024E96E67
:10025600000E0120EA6EEECF04F0EECF05F015D0C9
:1002660024C403F00F0E031603C000F0000E016E47
:100276000036009001364C0E0024E96E000E012077
:10028600EA6EEECF04F0EECF05F02151030A07E146
:1002960004C0E1FF05C0E2FF840EE66E43D024C42D
:1002A60000F00F0E0016700E026E0F0E036E005059
:1002B6000226D8B0032A02C0E9FF03C0EAFFFE0EF9
:1002C600EE14006EEECF01F0FF0E011602C0E1FF44
:1002D60003C0E2FF00C0E6FF01C0E6FF24AF11D075
:1002E60004C0E1FF05C0E2FFE66A040E0418006ED2
:1002F60000C004F004C0E1FF05C0E2FF400EE66E58
:1003060011D004C0E1FF05C0E2FF880EE66E040EC0
:100316000418006E00C004F004C0E1FF05C0E2FF4F
:06032600C80EE66E120095
:10032C0020C401F01F0E01160150010A01E08DD00E
:10033C0004012451000A01E088D02151060A3FE152
:10034C0034D03050010A17E17C0E006E170E016E8E
:10035C00000E026E120E0026000E0122022200C0B8
:10036C0038F001C039F002C03AF0090E3C6E000EB4
:10037C003D6EC00E3B6E23D03050010A12E1A50E2B
:10038C00006E170E016E000E026E00C038F001C038
:10039C0039F002C03AF0210E3C6E000E3D6EC00EDC
:1003AC003B6E0DD0800E3B6E0AD004012351210A06
:1003BC00C8E02351220AE0E02351230AF3E020C4D1
:1003CC0001F0600E0116050E006E005004E00132C3
:1003DC00019EFF0FFBD70150010A01E036D022D05D
:1003EC0034D033D05F0E386E000E396E010E3C6E79
:1003FC00000E3D6EC10E3B6E28D0800E3B6E23C4AA
:10040C005FF023D0550E386E000E396E010E3C6E27
:10041C00000E3D6E810E3B6E18D0800E3B6E22C4DA
:10042C0055F013D004012151010ADAE02151090AD7
:10043C00D8E02151020AD6E021510A0ADEE021510E
:0C044C00030AE0E021510B0AE8E0120076
:100458000401286B296B42D03B8E28813750010A52
:10046800D8B4288350D03B8E4ED03B8E24BF16D0B4
:1004780024C403F00F0E031603C000F0000E016E33
:100488000036009001363E0E0024E96E000E012071
:10049800EA6EEECF04F0EECF05F015D024C403F0D9
:1004A8000F0E031603C000F0000E016E0036009018
:1004B80001364C0E0024E96E000E0120EA6EEECFE4
:1004C80004F0EECF05F004C0E9FF05C0EAFFEECF67
:1004D80001F001A402D0010E286F15D020C401F04C
:1004E8001F0E01160150000AB7E020C401F01F0ECC
:1004F80001160150010AB7E020C401F01F0E0116D1
:100508000150020AB2E03BAE07D0280E386E040E46
:0A051800396E3B80020E3C6E1200AB
:1005220004012051800AD8A471D0C00E3B6E64D061
:10053200C60E006E170E016E000E026E00C038F07D
:1005420001C039F002C03AF0120E3C6E000E3D6E50
:100552005DD0030E006E000E016E22C404F0000E88
:10056200056E18DE340E0024E96E000E0120EA6EDC
:10057200EECF38F0EECF39F0EECF3AF0020E38245B
:10058200F66E000E3920F76E000E3A20F86E090062
:10059200F5CF00F00900F5CF01F000C03CF001C03A
:1005A2003DF034D02251325C23E3030E006E000E84
:1005B200016E22C404F0000E056EECDD420E002432
:1005C200E96E000E0120EA6EEECF38F0EECF39F080
:1005D200EECF3AF038C0F6FF39C0F7FF3AC0F8FF65
:1005E2000900F5CF00F000C03CF0000E3D6E01D0D6
:1005F2003B6A0CD03B6A0AD02351010A99E023518D
:0E060200020AA7E02351030ACDE0F4D712004C
:100610003B8E716A336A22C430F03050000A03E125
:0E062000100E2B6E03D0200E2B6E52DD12003A
:10062E00000E3D5C02E1080E3C5C10E23CC003F0A3
:10063E003DC004F05050000A03E1010E506E05D08B
:10064E005050010A02E1020E506E04D0080E036EE5
:10065E00000E046E4CC0E1FF4DC0E2FFE6924CC0AE
:10066E00E1FF4DC0E2FFE6904CC0E9FF4DC0EAFF4E
:10067E00EECF00F04CC0E1FF4DC0E2FF0450001081
:10068E00E66E010E4C24E16E000E4D20E26E03C0AC
:10069E00E6FF03503C5C006E04503D58016E00C0F6
:1006AE003CF001C03DF0280E536E040E546E3BB06C
:1006BE002FD0035004102BE038C0F6FF39C0F7FFDF
:1006CE003AC0F8FF0900F5CF00F053C0E1FF54C067
:1006DE00E2FF00C0E6FF534A542A010E3824006E92
:1006EE00000E3920016E000E3A20026E00C038F066
:1006FE0001C039F002C03AF0010E035C006E000E2C
:10070E000458016E00C003F001C004F0D2D724D00B
:10071E000350041021E038C0E9FF39C0EAFF53C08E
:10072E00E1FF54C0E2FFEECFE6FF534A542A010E1A
:10073E003824006E000E3920016E00C038F001C062
:10074E0039F0010E035C006E000E0458016E00C0FD
:0A075E0003F001C004F0DCD7120024
:100768006D983BBE4AD0000165AF28D0020E316EAD
:10077800010E4C24E16E000E4D20E26EE66A4CC07C
:10078800E1FF4DC0E2FFC80EE66E010E6C25E16E7A
:10079800000E6D21E26E080EE66E020E6C25E16E0B
:1007A800000E6D21E26E280EE66E040EE66E6CC039
:1007B800E1FF6DC0E2FFC80EE66E1ED0010E6C258B
:1007C800E16E000E6D21E26E080EE66E020E6C25DB
:1007D800E16E000E6D21E26E200EE66E040EE66EEE
:1007E8006CC0E1FF6DC0E2FF8C0EE66E4CC0E1FF0D
:1007F8004DC0E2FF840EE66E80D0000165BF7DD05B
:10080800040120AF52D03D50275D02E13C50265DE7
:1008180004E226C43CF027C43DF005DF010E316E2A
:10082800010E00016C25E16E000E6D21E26E080ECE
:10083800E66E020E6C25E16E000E6D21E26E200E52
:10084800E66E040EE66E6CC0E1FF6DC0E2FF800E3E
:10085800E66E606B010E6125E16E000E6221E26EAC
:10086800080EE66E020E6125E16E000E6221E26E50
:10087800200EE66E040EE66E61C0E1FF62C0E2FF84
:10088800840EE66E010E606F020E4C24E16E000EBF
:100898004D20E26E280EE66E040EE66E4CC0E1FFB7
:1008A8004DC0E2FFC80EE66E28D00001020E316E80
:1008B800010E4C24E16E000E4D20E26EE66A4CC03B
:1008C800E1FF4DC0E2FFC80EE66E010E6C25E16E39
:1008D800000E6D21E26E080EE66E020E6C25E16ECA
:1008E800000E6D21E26E280EE66E040EE66E6CC0F8
:0C08F800E1FF6DC0E2FFC80EE66E1200CA
:0E090400160E6F6E9F0E6B6E3B0E696E12002C
:1009120020C401F0600E0116050E006E005004E0C6
:100922000132019EFF0FFBD70150000A01E058D0AF
:1009320034D03B8E080E2B6E53D0F2DD51D067DEE1
:100942004FD0300E386E000E396E3B80010E3C6E79
:100952003B8E46D080DD44D045DC42D0330E006E63
:10096200000E016E24510026D8B0012A00C038F0D2
:1009720001C039F03B80010E3C6E3B8E31D03B8E84
:10098200330EE16E000EE26E2451E126D8B0E22A67
:1009920022C4E6FF25D024D023D004012151050A28
:1009A200C8E02151060AC9E02151090AC8E02151D3
:1009B200080AC7E02151000ACDE02151010ACCE02A
:1009C2002151030AC9E021510A0AC8E021510B0A48
:1009D200D6E02151070ADFE021510C0ADDE0DCD725
:0209E200120001
:1009E400316A4CC0E1FF4DC0E2FFE66A040E4C18C8
:1009F400E16E4DC0E2FF000EE21AE66A000165AF47
:060A040001D0659F120005
:100A0A00010E00016125E96E000E6221EA6EEECF49
:100A1A0000F000C002F0000E675D02E10250665D60
:100A2A0003E266C002F00AD00250665D006E000E54
:100A3A006759016E00C066F001C067F0036A025090
:100A4A00035C1CE2280EE96E040EEA6E0350E926E6
:100A5A00D8B0EA2AEECF00F063C0E1FF64C0E2FF3B
:100A6A0000C0E6FF010E6325006E000E6421016ED0
:100A7A0000C063F001C064F0032AE1D7000E006EE3
:100A8A006751005C02E16651000828E2010E6C25FC
:100A9A00E16E000E6D21E26E080EE66E020E6C2506
:100AAA00E16E000E6D21E26E280EE66E040EE66E11
:100ABA0061C0E9FF62C0EAFFEECF00F000BC07D0D8
:100ACA006CC0E1FF6DC0E2FFC80EE66E06D06CC0D6
:100ADA00E1FF6DC0E2FF880EE66E19D0010E6C25AB
:100AEA00E16E000E6D21E26E080EE66E020E6C25B6
:100AFA00E16E000E6D21E26E200EE66E040EE66EC9
:100B0A006CC0E1FF6DC0E2FF840EE66E659F1200C5
:100B1A007C0E346E170E356E000E366EEA0E426E7D
:100B2A00170E436E000E446ED80E456E170E466EB3
:100B3A00000E476EE20E486E170E496E000E4A6EA0
:020B4A00120097
:0A0B4C004B5202E096EC01F012009B
:100B560070A01CD061C0E9FF62C0EAFFEECF01F0D1
:100B66000150800A12E14CC0E9FF4DC0EAFFEECF0A
:100B760001F0000E000A02E1840E011806E161C0D0
:100B8600E1FF62C0E2FF8C0EE66E7090DF0E681623
:020B960012004B
:100B98003150020A02E135DF1ED020DF6051000A21
:100BA80019E1010E6C25E16E000E6D21E26E080E52
:100BB800E66E020E6C25E16E000E6D21E26E200ECF
:100BC800E66E040EE66E6CC0E1FF6DC0E2FF8C0EAF
:080BD800E66E01D0606B120013
:100BE0006D92699468A403D0FB0E6816FBD71200BF
:100BF0004CC0E9FF4DC0EAFFEECF00F000AE05D0DB
:100C00004CC0E1FF4DC0E2FFE66A506A316A3C6ABF
:0C0C10003D6A3B6A7EDE9ADFA7DD120021
:0A0C1C006984EF0E68166D82120065
:100C2600040E4C18006E00C04CF02B50080A0AE166
:100C360022C46EFF6E50000803E2100E2B6E02D027
:100C4600040E2B6E3150010A3AE1020E4C24E16E7D
:100C5600000E4D20E26E280EE66E040EE66EE4DC13
:100C66005050020A07E14CC0E1FF4DC0E2FF840E7E
:100C7600E66E24D0040E4C18006E00C04CF04CC03A
:100C8600E9FF4DC0EAFFEECF00F000BC0CD0040E29
:100C96004C18006E00C04CF04CC0E1FF4DC0E2FFA6
:100CA600C80EE66E0BD0040E4C18006E00C04CF059
:100CB6004CC0E1FF4DC0E2FF880EE66E01D08FDE2C
:020CC60012001A
:040CC800A19A1200DB
:100CCC0026DF2C6A2D6A516A526A6A6A686A14DED7
:100CDC006D8C6E6A716A6D9C5B6A5C6A000E5C5C02
:100CEC0002E1080E5B5C17E25BC000F05CC001F037
:100CFC00003600900136003600900136000E0024BC
:100D0C00E16E040E0120E26EE66AE66AE66AE66AC5
:100D1C005B4A5C2AE3D7160E706E68A603D0F70EFA
:100D2C006816FBD73B6A0001656B666B676B6D9849
:0E0D3C00080E4C6E040E4D6E306A2B6A1200CB
:100D4A00000E00017A1902E1000E791902E1016A26
:100D5A000AD079C0E9FF7AC0EAFFEECF00F0000EB0
:0C0D6A0000BE010E016E01C000F012007E
:0A0D7600D08EA28AA08AF28E12002D
:100D8000C60E006E170E016E000E026E0E0E0024CF
:100D9000F66E000E0120F76E000E0220F86E0900BC
:100DA000F5CF03F003C004F00F0E0024F66E000E22
:100DB0000120F76E000E0220F86E0900F5CF01F059
:100DC0000150035C12E2C60E006E170E016E000E9B
:100DD000026E0F0E0024F66E000E0120F76E000E5C
:100DE0000220F86E0900F5CF04F0C60E006E170E53
:100DF000016E000E026E100E0024F66E000E012031
:100E0000F76E000E0220F86E0900F5CF01F00150D8
:100E1000045C12E2C60E006E170E016E000E026E2A
:100E2000100E0024F66E000E0120F76E000E022058
:0E0E3000F86E0900F5CF04F004C000F01200C7
:100E3E0000017A51000A12E079C000F0000E016E36
:100E4E000036009001364C0E0024E96E000E012093
:100E5E00EA6EEECF04F0EECF05F011D079C000F0BF
:100E6E00000E016E0036009001363E0E0024E96E33
:100E7E00000E0120EA6EEECF04F0EECF05F0020E6A
:100E8E000424E16E000E0520E26E7BC0E6FF7CC0FE
:100E9E00E6FF010E0424E16E000E0520E26E7DC019
:100EAE00E6FF04C0E9FF05C0EAFFEECF00F004C084
:100EBE00E1FF05C0E2FF400E0014E66E04C0E9FF3C
:100ECE0005C0EAFFEECF00F0880E001204C0E1FF6D
:100EDE0005C0E2FF00C0E6FF7A51000A1BE079C0B0
:100EEE0000F0000E016E0036009001364C0E00240C
:100EFE00026E000E0120036E02C0E9FF03C0EAFF7E
:100F0E00040EEE18006E02C0E1FF03C0E2FF00C047
:100F1E00E6FF1AD079C000F0000E016E0036009088
:100F2E0001363E0E0024026E000E0120036E02C03A
:100F3E00E9FF03C0EAFF040EEE18006E02C0E1FFE7
:100F4E0003C0E2FF00C0E6FF04C000F005C001F0E0
:020F5E0012007F
:100F600000017C6B7D6B7E6B020E7925F66E000EA8
:100F70007A21F76E000E7B21F86E0900F5CF05F09F
:100F8000030E7925F66E000E7A21F76E000E7B2196
:100F9000F86E0900F5CF00F000C003F0000E046EFB
:100FA00003C001F0006A05500024066E000E012007
:100FB000076E79C008F07AC009F07BC00AF0010E14
:100FC0000824F66E000E0920F76E000E0A20F86E57
:100FD0000900F5CF01F00150020A1BE1060E0824BA
:100FE000F66E000E0920F76E000E0A20F86E09005A
:100FF000F5CF01F001507C5D0CE2060E0824F66E80
:10100000000E0920F76E000E0A20F86E0900F5CFD9
:101010007CF0010E0824F66E000E0920F76E000E1B
:101020000A20F86E0900F5CF01F00150040A1BE117
:10103000080E0824F66E000E0920F76E000E0A2036
:10104000F86E0900F5CF01F001507C5D0CE2080E4E
:101050000824F66E000E0920F76E000E0A20F86EC6
:101060000900F5CF7CF008C0F6FF09C0F7FF0AC001
:10107000F8FF0900F5CF00F000507D25016E000E4D
:101080007E21026E01C07DF002C07EF00750025C3E
:1010900002E10650015C01E30FD008C0F6FF09C071
:1010A000F7FF0AC0F8FF0900F5CF00F0005008264E
:0E10B000000E09220A2283D77CC000F0120035
:1010BE002B50000A09E16D6A696A1DDC6DB602D01B
:1010CE006D86FCD7010E2B6E2B50010A08E16DBA0E
:1010DE0006D0686A696A69806988020E2B6E68A4F8
:1010EE0005D069A403D0FB0E681673DD6DA202D085
:1010FE00E4DDD5D068A018D069A016D0E0DD040ECE
:10110E002B6E200E0401026F040E036F080E016F8A
:10111E00000E0015006E00C000F48C0E0011006E63
:10112E0000C000F4FE0E681668A805D069A803D0AA
:10113E006EDDEF0E681668AC04D069AC02D0BF0E3F
:10114E00681668AA03D069AA01D0FEDC68A202D094
:10115E0069B26A6A040E2B5C02E2AFDDA0D069A60A
:10116E009DD000017A6B040E7A5DD8B097D068A638
:10117E0091D06CCF5AF0F70E6816780E5A14016E95
:10118E000150000AD8A485D0FD0E5A14016E026AD1
:10119E00FF0E0216000E021802E1000E01186BE19E
:1011AE007E0E5A14016E01C003F00332039E03C07B
:1011BE0000F0000E016E00360090013600360090F1
:1011CE000136000E0024026E040E0120036E02C0D2
:1011DE0061F003C062F002C06CF003C06DF0040E4B
:1011EE006C19006E00C06CF002C0E9FF03C0EAFF8C
:1011FE00EECF00F000C001F03C0E01160132019E50
:10120E000132019E01500D0A34E1020E6125E96E94
:10121E00000E6221EA6EEECF01F0EECF02F0025028
:10122E00040A02E1280E011822E1020E6125E16E88
:10123E00000E6221E26E200EE66E040EE66E796BF3
:10124E00080E795D14E2200EE16E040EE26E795105
:10125E00E126D8B0E22A280EE96E040EEA6E795124
:10126E00E926D8B0EA2AEECFE6FF792BE9D7B9DC2A
:10127E0001D08BDC0DD0FD0E5A14016E026AFF0EEA
:10128E000216000E021802E1040E011801E1C4DC80
:10129E0000D001D003D000017A2B65D70EDD1200ED
:1012AE000001786B200E2B5C03E36DB201D002D0EF
:1012BE00006A2DD02CC079F02DC07AF03FDD00529F
:1012CE0025E12CC076F02DC077F0000E2D1802E12E
:1012DE00000E2C180AE0010E7625E96E000E77211D
:1012EE00EA6EEECF00F000C078F075C079F07A6B40
:1012FE0072C07BF073C07CF074C07DF099DD00C0CD
:10130E002CF001C02DF078C000F001D0006A120060
:10131E0030DD00C072F07C0E0001796F170E7A6F0F
:10132E00000E7B6F16DE00C073F07251005C03E29C
:0C133E0072C000F002D073C000F012007A
:10134A00200E2B5C03E36DB201D002D0006A4ED0AE
:10135A0051C079F052C07AF0F3DC005246E175C010
:10136A0079F0010E7A6F72C07BF073C07CF074C0A2
:10137A007DF060DD00C051F001C052F0566A576A34
:10138A00586A596A51C079F052C07AF0D9DC0052D1
:10139A0016E0200E2B5C03E36DB201D002D0006A86
:1013AA0025D0010E016E0150000A01E183DE56507C
:1013BA0057105810591002E0006A18D0E3D751C0EC
:1013CA0076F052C077F0000E521802E1000E511862
:1013DA000AE0010E00017625E96E000E7721EA6E19
:0E13EA00EECF00F003D0006A01D0006A1200BE
:1013F8002B50000A0BE16D6A696A82EC04F0B7DCD5
:0E1408006DB602D06D86FCD7010E2B6E120061
:1014160083DF00C032F0010E4B6E6EC02EF06FC03F
:101426002FF070C05DF071C05EF04DDC010E016EF4
:0A1436000150010A01E1DDDF1200A0
:101440002B50010A07E16DBA05D0686A6980698886
:10145000020E2B6E68A406D069A404D0FB0E681699
:10146000F0EC05F06DA202D02FDCDCD068A018D023
:1014700069A016D02BDC040E2B6E200E0401026F27
:10148000040E036F080E016F000E0015006E00C001
:1014900000F48C0E0011006E00C000F4FE0E681601
:1014A00068A806D069A804D00EEC06F0EF0E681606
:1014B00068AC04D069AC02D0BF0E681668AA04D02C
:1014C00069AA02D0ABEC05F068A202D069B26A6AE0
:1014D000040E2B5C03E264EC06F0A4D069A6A0D055
:1014E0000001806B040E805DD8B09AD068A694D0BD
:1014F0006CCF5AF0F70E6816780E5A14016E015030
:10150000000AD8A488D0FD0E5A14016E026AFF0E9C
:101510000216000E021802E1000E01186DE17E0EA7
:101520005A14016E01C003F00332039E03C000F0A1
:10153000000E016E00360090013600360090013634
:10154000000E0024026E040E0120036E02C061F042
:1015500003C062F002C06CF003C06DF0040E6C19A1
:10156000006E00C06CF002C0E9FF03C0EAFFEECFDE
:1015700000F000C001F03C0E01160132019E013264
:10158000019E01500D0A35E1020E6125E96E000E43
:101590006221EA6EEECF01F0EECF02F00250040AB3
:1015A00002E1280E011822E1020E6125E16E000E13
:1015B0006221E26E200EE66E040EE66E7F6B080E70
:1015C0007F5D14E2200EE16E040EE26E7F51E12693
:1015D000D8B0E22A280EE96E040EEA6E7F51E926A1
:1015E000D8B0EA2AEECFE6FF7F2BE9D7F8EC05F07A
:1015F00002D0CCEC05F00ED0FD0E5A14016E026A3A
:10160000FF0E0216000E021802E1040E011802E19C
:1016100013EC06F000D001D003D00001802B62D77C
:0616200064EC06F012006C
:101626000900F5CFE6FF0006FBE10106F9E112002D
:101636006EC072F06FC073F070C074F0010E0001DE
:06164600756F80DE12004A
:10164C002EC072F02FC073F0400E0001746F010EAB
:06165C00756F27DE12008D
:10166200296A2A6A0F0EC112070EB412846A8D6AA1
:1016720096909692816A8A6A9380000E00016E6F3C
:10168200050E6F6F400E706F050E716FC3DEF29222
:10169200F288F18CF090F086F18AA08AA19AF28CFD
:1016A200F28E000E2A1802E1010E29180DE1730EC6
:1016B2000501406F400E00016E6F050E6F6F020E46
:1016C200706FB8DF296A2A6A000E2A1802E1020E38
:1016D20029180DE1770E0501406F400E00016E6F73
:1016E200050E6F6F020E706FA5DF296A2A6AADDFE1
:1016F2000050000A40E0A9DF05010051010A0CE197
:10170200050E406F8480400E00016E6F050E6F6FF4
:10171200020E706F8FDF2FD005010051020A0CE11B
:10172200060E406F8490400E00016E6F050E6F6FC3
:10173200020E706F7FDF1FD005010051030A0CE11A
:10174200070E406F8482400E00016E6F050E6F6FB0
:10175200020E706F6FDF0FD005010051040A0BE11A
:10176200080E406F8492400E00016E6F050E6F6F7F
:0A177200020E706F5FDF95D7FFD7FE
:10177C000902290001010080320904000002030063
:10178C00000009210101000122210007058103400D
:09179C00000107050103400001F2
:1017A5000600FF0901A10119012940150026FF00C6
:1017B5007508950281021901294075089502910263
:0117C500C063
:1017C6001201000200000008D80401000001010215
:0217D600000110
:0A17D8000A034800550059003200D2
:0817E20008035500530042000A
:0417EA0004030904E7
:020000040030CA
:0E000000240C3F1EFF8381FF0FC00FE00F4056
:00000001FF
